{
  "address": "0xB53Ecca6CB52279e80D8d05a0BC741aDf50bfce4",
  "abi": [
    {
      "inputs": [],
      "stateMutability": "nonpayable",
      "type": "constructor"
    },
    {
      "anonymous": false,
      "inputs": [
        {
          "indexed": false,
          "internalType": "uint256",
          "name": "min",
          "type": "uint256"
        },
        {
          "indexed": false,
          "internalType": "uint256",
          "name": "max",
          "type": "uint256"
        }
      ],
      "name": "Abroad",
      "type": "event"
    },
    {
      "anonymous": false,
      "inputs": [
        {
          "indexed": false,
          "internalType": "address",
          "name": "previousAdmin",
          "type": "address"
        },
        {
          "indexed": false,
          "internalType": "address",
          "name": "newAdmin",
          "type": "address"
        }
      ],
      "name": "AdminChanged",
      "type": "event"
    },
    {
      "anonymous": false,
      "inputs": [
        {
          "indexed": true,
          "internalType": "address",
          "name": "beacon",
          "type": "address"
        }
      ],
      "name": "BeaconUpgraded",
      "type": "event"
    },
    {
      "anonymous": false,
      "inputs": [
        {
          "indexed": false,
          "internalType": "uint256",
          "name": "fee",
          "type": "uint256"
        },
        {
          "indexed": false,
          "internalType": "uint256",
          "name": "feeDenominator",
          "type": "uint256"
        }
      ],
      "name": "BuyFeeUpdated",
      "type": "event"
    },
    {
      "anonymous": false,
      "inputs": [
        {
          "indexed": false,
          "internalType": "address",
          "name": "collector",
          "type": "address"
        }
      ],
      "name": "CollectorUpdated",
      "type": "event"
    },
    {
      "anonymous": false,
      "inputs": [
        {
          "indexed": false,
          "internalType": "string",
          "name": "label",
          "type": "string"
        },
        {
          "indexed": false,
          "internalType": "uint256",
          "name": "amount",
          "type": "uint256"
        },
        {
          "indexed": false,
          "internalType": "uint256",
          "name": "fee",
          "type": "uint256"
        },
        {
          "indexed": false,
          "internalType": "address",
          "name": "sender",
          "type": "address"
        },
        {
          "indexed": false,
          "internalType": "string",
          "name": "refferal",
          "type": "string"
        }
      ],
      "name": "EventExchange",
      "type": "event"
    },
    {
      "anonymous": false,
      "inputs": [
        {
          "indexed": false,
          "internalType": "uint8",
          "name": "version",
          "type": "uint8"
        }
      ],
      "name": "Initialized",
      "type": "event"
    },
    {
      "anonymous": false,
      "inputs": [
        {
          "indexed": false,
          "internalType": "uint256",
          "name": "nextPayoutTime",
          "type": "uint256"
        }
      ],
      "name": "NextPayoutTime",
      "type": "event"
    },
    {
      "anonymous": false,
      "inputs": [
        {
          "indexed": false,
          "internalType": "address",
          "name": "account",
          "type": "address"
        }
      ],
      "name": "Paused",
      "type": "event"
    },
    {
      "anonymous": false,
      "inputs": [
        {
          "indexed": false,
          "internalType": "uint256",
          "name": "tvlFee",
          "type": "uint256"
        },
        {
          "indexed": false,
          "internalType": "uint256",
          "name": "profitFee",
          "type": "uint256"
        },
        {
          "indexed": false,
          "internalType": "uint256",
          "name": "profit",
          "type": "uint256"
        },
        {
          "indexed": false,
          "internalType": "uint256",
          "name": "loss",
          "type": "uint256"
        }
      ],
      "name": "PayoutEvent",
      "type": "event"
    },
    {
      "anonymous": false,
      "inputs": [
        {
          "indexed": false,
          "internalType": "address",
          "name": "payoutListener",
          "type": "address"
        }
      ],
      "name": "PayoutListenerUpdated",
      "type": "event"
    },
    {
      "anonymous": false,
      "inputs": [
        {
          "indexed": false,
          "internalType": "uint256",
          "name": "nextPayoutTime",
          "type": "uint256"
        },
        {
          "indexed": false,
          "internalType": "uint256",
          "name": "payoutPeriod",
          "type": "uint256"
        },
        {
          "indexed": false,
          "internalType": "uint256",
          "name": "payoutTimeRange",
          "type": "uint256"
        }
      ],
      "name": "PayoutTimesUpdated",
      "type": "event"
    },
    {
      "anonymous": false,
      "inputs": [
        {
          "indexed": false,
          "internalType": "uint256",
          "name": "fee",
          "type": "uint256"
        },
        {
          "indexed": false,
          "internalType": "uint256",
          "name": "feeDenominator",
          "type": "uint256"
        }
      ],
      "name": "ProfitFeeUpdated",
      "type": "event"
    },
    {
      "anonymous": false,
      "inputs": [
        {
          "indexed": false,
          "internalType": "uint256",
          "name": "fee",
          "type": "uint256"
        },
        {
          "indexed": false,
          "internalType": "uint256",
          "name": "feeDenominator",
          "type": "uint256"
        }
      ],
      "name": "RedeemFeeUpdated",
      "type": "event"
    },
    {
      "anonymous": false,
      "inputs": [
        {
          "indexed": true,
          "internalType": "bytes32",
          "name": "role",
          "type": "bytes32"
        },
        {
          "indexed": true,
          "internalType": "bytes32",
          "name": "previousAdminRole",
          "type": "bytes32"
        },
        {
          "indexed": true,
          "internalType": "bytes32",
          "name": "newAdminRole",
          "type": "bytes32"
        }
      ],
      "name": "RoleAdminChanged",
      "type": "event"
    },
    {
      "anonymous": false,
      "inputs": [
        {
          "indexed": true,
          "internalType": "bytes32",
          "name": "role",
          "type": "bytes32"
        },
        {
          "indexed": true,
          "internalType": "address",
          "name": "account",
          "type": "address"
        },
        {
          "indexed": true,
          "internalType": "address",
          "name": "sender",
          "type": "address"
        }
      ],
      "name": "RoleGranted",
      "type": "event"
    },
    {
      "anonymous": false,
      "inputs": [
        {
          "indexed": true,
          "internalType": "bytes32",
          "name": "role",
          "type": "bytes32"
        },
        {
          "indexed": true,
          "internalType": "address",
          "name": "account",
          "type": "address"
        },
        {
          "indexed": true,
          "internalType": "address",
          "name": "sender",
          "type": "address"
        }
      ],
      "name": "RoleRevoked",
      "type": "event"
    },
    {
      "anonymous": false,
      "inputs": [
        {
          "indexed": false,
          "internalType": "address",
          "name": "usdPlus",
          "type": "address"
        },
        {
          "indexed": false,
          "internalType": "address",
          "name": "rebase",
          "type": "address"
        }
      ],
      "name": "TokensUpdated",
      "type": "event"
    },
    {
      "anonymous": false,
      "inputs": [
        {
          "indexed": false,
          "internalType": "uint256",
          "name": "fee",
          "type": "uint256"
        },
        {
          "indexed": false,
          "internalType": "uint256",
          "name": "feeDenominator",
          "type": "uint256"
        }
      ],
      "name": "TvlFeeUpdated",
      "type": "event"
    },
    {
      "anonymous": false,
      "inputs": [
        {
          "indexed": false,
          "internalType": "address",
          "name": "account",
          "type": "address"
        }
      ],
      "name": "Unpaused",
      "type": "event"
    },
    {
      "anonymous": false,
      "inputs": [
        {
          "indexed": true,
          "internalType": "address",
          "name": "implementation",
          "type": "address"
        }
      ],
      "name": "Upgraded",
      "type": "event"
    },
    {
      "inputs": [],
      "name": "DEFAULT_ADMIN_ROLE",
      "outputs": [
        {
          "internalType": "bytes32",
          "name": "",
          "type": "bytes32"
        }
      ],
      "stateMutability": "view",
      "type": "function"
    },
    {
      "inputs": [],
      "name": "FREE_RIDER_ROLE",
      "outputs": [
        {
          "internalType": "bytes32",
          "name": "",
          "type": "bytes32"
        }
      ],
      "stateMutability": "view",
      "type": "function"
    },
    {
      "inputs": [],
      "name": "PAUSABLE_ROLE",
      "outputs": [
        {
          "internalType": "bytes32",
          "name": "",
          "type": "bytes32"
        }
      ],
      "stateMutability": "view",
      "type": "function"
    },
    {
      "inputs": [],
      "name": "PORTFOLIO_AGENT_ROLE",
      "outputs": [
        {
          "internalType": "bytes32",
          "name": "",
          "type": "bytes32"
        }
      ],
      "stateMutability": "view",
      "type": "function"
    },
    {
      "inputs": [],
      "name": "UPGRADER_ROLE",
      "outputs": [
        {
          "internalType": "bytes32",
          "name": "",
          "type": "bytes32"
        }
      ],
      "stateMutability": "view",
      "type": "function"
    },
    {
      "inputs": [],
      "name": "abroadMax",
      "outputs": [
        {
          "internalType": "uint256",
          "name": "",
          "type": "uint256"
        }
      ],
      "stateMutability": "view",
      "type": "function"
    },
    {
      "inputs": [],
      "name": "abroadMin",
      "outputs": [
        {
          "internalType": "uint256",
          "name": "",
          "type": "uint256"
        }
      ],
      "stateMutability": "view",
      "type": "function"
    },
    {
      "inputs": [],
      "name": "balance",
      "outputs": [],
      "stateMutability": "nonpayable",
      "type": "function"
    },
    {
      "inputs": [],
      "name": "balancePosition",
      "outputs": [],
      "stateMutability": "nonpayable",
      "type": "function"
    },
    {
      "inputs": [
        {
          "internalType": "uint256",
          "name": "_amount",
          "type": "uint256"
        },
        {
          "internalType": "string",
          "name": "referral",
          "type": "string"
        }
      ],
      "name": "buy",
      "outputs": [
        {
          "internalType": "uint256",
          "name": "",
          "type": "uint256"
        }
      ],
      "stateMutability": "nonpayable",
      "type": "function"
    },
    {
      "inputs": [],
      "name": "buyFee",
      "outputs": [
        {
          "internalType": "uint256",
          "name": "",
          "type": "uint256"
        }
      ],
      "stateMutability": "view",
      "type": "function"
    },
    {
      "inputs": [],
      "name": "buyFeeDenominator",
      "outputs": [
        {
          "internalType": "uint256",
          "name": "",
          "type": "uint256"
        }
      ],
      "stateMutability": "view",
      "type": "function"
    },
    {
      "inputs": [],
      "name": "exchange",
      "outputs": [
        {
          "internalType": "contract IExchange",
          "name": "",
          "type": "address"
        }
      ],
      "stateMutability": "view",
      "type": "function"
    },
    {
      "inputs": [
        {
          "internalType": "contract IERC20[]",
          "name": "_tokens",
          "type": "address[]"
        }
      ],
      "name": "exit",
      "outputs": [],
      "stateMutability": "nonpayable",
      "type": "function"
    },
    {
      "inputs": [
        {
          "internalType": "bytes32",
          "name": "role",
          "type": "bytes32"
        }
      ],
      "name": "getRoleAdmin",
      "outputs": [
        {
          "internalType": "bytes32",
          "name": "",
          "type": "bytes32"
        }
      ],
      "stateMutability": "view",
      "type": "function"
    },
    {
      "inputs": [
        {
          "internalType": "bytes32",
          "name": "role",
          "type": "bytes32"
        },
        {
          "internalType": "address",
          "name": "account",
          "type": "address"
        }
      ],
      "name": "grantRole",
      "outputs": [],
      "stateMutability": "nonpayable",
      "type": "function"
    },
    {
      "inputs": [
        {
          "internalType": "bytes32",
          "name": "role",
          "type": "bytes32"
        },
        {
          "internalType": "address",
          "name": "account",
          "type": "address"
        }
      ],
      "name": "hasRole",
      "outputs": [
        {
          "internalType": "bool",
          "name": "",
          "type": "bool"
        }
      ],
      "stateMutability": "view",
      "type": "function"
    },
    {
      "inputs": [],
      "name": "initialize",
      "outputs": [],
      "stateMutability": "nonpayable",
      "type": "function"
    },
    {
      "inputs": [],
      "name": "lastBlockNumber",
      "outputs": [
        {
          "internalType": "uint256",
          "name": "",
          "type": "uint256"
        }
      ],
      "stateMutability": "view",
      "type": "function"
    },
    {
      "inputs": [
        {
          "internalType": "contract IERC20[]",
          "name": "_tokens",
          "type": "address[]"
        }
      ],
      "name": "needExitAmount",
      "outputs": [
        {
          "internalType": "uint256",
          "name": "",
          "type": "uint256"
        }
      ],
      "stateMutability": "view",
      "type": "function"
    },
    {
      "inputs": [],
      "name": "nextPayoutTime",
      "outputs": [
        {
          "internalType": "uint256",
          "name": "",
          "type": "uint256"
        }
      ],
      "stateMutability": "view",
      "type": "function"
    },
    {
      "inputs": [],
      "name": "pause",
      "outputs": [],
      "stateMutability": "nonpayable",
      "type": "function"
    },
    {
      "inputs": [],
      "name": "paused",
      "outputs": [
        {
          "internalType": "bool",
          "name": "",
          "type": "bool"
        }
      ],
      "stateMutability": "view",
      "type": "function"
    },
    {
      "inputs": [],
      "name": "payout",
      "outputs": [],
      "stateMutability": "nonpayable",
      "type": "function"
    },
    {
      "inputs": [],
      "name": "payoutListener",
      "outputs": [
        {
          "internalType": "contract IPayoutListener",
          "name": "",
          "type": "address"
        }
      ],
      "stateMutability": "view",
      "type": "function"
    },
    {
      "inputs": [],
      "name": "payoutPeriod",
      "outputs": [
        {
          "internalType": "uint256",
          "name": "",
          "type": "uint256"
        }
      ],
      "stateMutability": "view",
      "type": "function"
    },
    {
      "inputs": [],
      "name": "payoutTimeRange",
      "outputs": [
        {
          "internalType": "uint256",
          "name": "",
          "type": "uint256"
        }
      ],
      "stateMutability": "view",
      "type": "function"
    },
    {
      "inputs": [],
      "name": "profitFee",
      "outputs": [
        {
          "internalType": "uint256",
          "name": "",
          "type": "uint256"
        }
      ],
      "stateMutability": "view",
      "type": "function"
    },
    {
      "inputs": [],
      "name": "profitFeeDenominator",
      "outputs": [
        {
          "internalType": "uint256",
          "name": "",
          "type": "uint256"
        }
      ],
      "stateMutability": "view",
      "type": "function"
    },
    {
      "inputs": [],
      "name": "proxiableUUID",
      "outputs": [
        {
          "internalType": "bytes32",
          "name": "",
          "type": "bytes32"
        }
      ],
      "stateMutability": "view",
      "type": "function"
    },
    {
      "inputs": [],
      "name": "rebase",
      "outputs": [
        {
          "internalType": "contract IRebaseToken",
          "name": "",
          "type": "address"
        }
      ],
      "stateMutability": "view",
      "type": "function"
    },
    {
      "inputs": [
        {
          "internalType": "uint256",
          "name": "_amount",
          "type": "uint256"
        }
      ],
      "name": "redeem",
      "outputs": [
        {
          "internalType": "uint256",
          "name": "",
          "type": "uint256"
        }
      ],
      "stateMutability": "nonpayable",
      "type": "function"
    },
    {
      "inputs": [],
      "name": "redeemFee",
      "outputs": [
        {
          "internalType": "uint256",
          "name": "",
          "type": "uint256"
        }
      ],
      "stateMutability": "view",
      "type": "function"
    },
    {
      "inputs": [],
      "name": "redeemFeeDenominator",
      "outputs": [
        {
          "internalType": "uint256",
          "name": "",
          "type": "uint256"
        }
      ],
      "stateMutability": "view",
      "type": "function"
    },
    {
      "inputs": [
        {
          "internalType": "bytes32",
          "name": "role",
          "type": "bytes32"
        },
        {
          "internalType": "address",
          "name": "account",
          "type": "address"
        }
      ],
      "name": "renounceRole",
      "outputs": [],
      "stateMutability": "nonpayable",
      "type": "function"
    },
    {
      "inputs": [
        {
          "internalType": "bytes32",
          "name": "role",
          "type": "bytes32"
        },
        {
          "internalType": "address",
          "name": "account",
          "type": "address"
        }
      ],
      "name": "revokeRole",
      "outputs": [],
      "stateMutability": "nonpayable",
      "type": "function"
    },
    {
      "inputs": [
        {
          "internalType": "uint256",
          "name": "_min",
          "type": "uint256"
        },
        {
          "internalType": "uint256",
          "name": "_max",
          "type": "uint256"
        }
      ],
      "name": "setAbroad",
      "outputs": [],
      "stateMutability": "nonpayable",
      "type": "function"
    },
    {
      "inputs": [
        {
          "internalType": "uint256",
          "name": "_fee",
          "type": "uint256"
        },
        {
          "internalType": "uint256",
          "name": "_feeDenominator",
          "type": "uint256"
        }
      ],
      "name": "setBuyFee",
      "outputs": [],
      "stateMutability": "nonpayable",
      "type": "function"
    },
    {
      "inputs": [
        {
          "internalType": "address",
          "name": "_collector",
          "type": "address"
        }
      ],
      "name": "setCollector",
      "outputs": [],
      "stateMutability": "nonpayable",
      "type": "function"
    },
    {
      "inputs": [
        {
          "internalType": "address",
          "name": "_exchanger",
          "type": "address"
        }
      ],
      "name": "setExchanger",
      "outputs": [],
      "stateMutability": "nonpayable",
      "type": "function"
    },
    {
      "inputs": [
        {
          "internalType": "address",
          "name": "_payoutListener",
          "type": "address"
        }
      ],
      "name": "setPayoutListener",
      "outputs": [],
      "stateMutability": "nonpayable",
      "type": "function"
    },
    {
      "inputs": [
        {
          "internalType": "uint256",
          "name": "_nextPayoutTime",
          "type": "uint256"
        },
        {
          "internalType": "uint256",
          "name": "_payoutPeriod",
          "type": "uint256"
        },
        {
          "internalType": "uint256",
          "name": "_payoutTimeRange",
          "type": "uint256"
        }
      ],
      "name": "setPayoutTimes",
      "outputs": [],
      "stateMutability": "nonpayable",
      "type": "function"
    },
    {
      "inputs": [
        {
          "internalType": "uint256",
          "name": "_fee",
          "type": "uint256"
        },
        {
          "internalType": "uint256",
          "name": "_feeDenominator",
          "type": "uint256"
        }
      ],
      "name": "setProfitFee",
      "outputs": [],
      "stateMutability": "nonpayable",
      "type": "function"
    },
    {
      "inputs": [
        {
          "internalType": "uint256",
          "name": "_fee",
          "type": "uint256"
        },
        {
          "internalType": "uint256",
          "name": "_feeDenominator",
          "type": "uint256"
        }
      ],
      "name": "setRedeemFee",
      "outputs": [],
      "stateMutability": "nonpayable",
      "type": "function"
    },
    {
      "inputs": [
        {
          "internalType": "address",
          "name": "_strategy",
          "type": "address"
        }
      ],
      "name": "setStrategy",
      "outputs": [],
      "stateMutability": "nonpayable",
      "type": "function"
    },
    {
      "inputs": [
        {
          "internalType": "address",
          "name": "_usdPlus",
          "type": "address"
        },
        {
          "internalType": "address",
          "name": "_rebase",
          "type": "address"
        }
      ],
      "name": "setTokens",
      "outputs": [],
      "stateMutability": "nonpayable",
      "type": "function"
    },
    {
      "inputs": [
        {
          "internalType": "uint256",
          "name": "_fee",
          "type": "uint256"
        },
        {
          "internalType": "uint256",
          "name": "_feeDenominator",
          "type": "uint256"
        }
      ],
      "name": "setTvlFee",
      "outputs": [],
      "stateMutability": "nonpayable",
      "type": "function"
    },
    {
      "inputs": [],
      "name": "strategy",
      "outputs": [
        {
          "internalType": "contract IHedgeStrategy",
          "name": "",
          "type": "address"
        }
      ],
      "stateMutability": "view",
      "type": "function"
    },
    {
      "inputs": [
        {
          "internalType": "bytes4",
          "name": "interfaceId",
          "type": "bytes4"
        }
      ],
      "name": "supportsInterface",
      "outputs": [
        {
          "internalType": "bool",
          "name": "",
          "type": "bool"
        }
      ],
      "stateMutability": "view",
      "type": "function"
    },
    {
      "inputs": [],
      "name": "tvlFee",
      "outputs": [
        {
          "internalType": "uint256",
          "name": "",
          "type": "uint256"
        }
      ],
      "stateMutability": "view",
      "type": "function"
    },
    {
      "inputs": [],
      "name": "tvlFeeDenominator",
      "outputs": [
        {
          "internalType": "uint256",
          "name": "",
          "type": "uint256"
        }
      ],
      "stateMutability": "view",
      "type": "function"
    },
    {
      "inputs": [],
      "name": "unpause",
      "outputs": [],
      "stateMutability": "nonpayable",
      "type": "function"
    },
    {
      "inputs": [
        {
          "internalType": "address",
          "name": "newImplementation",
          "type": "address"
        }
      ],
      "name": "upgradeTo",
      "outputs": [],
      "stateMutability": "nonpayable",
      "type": "function"
    },
    {
      "inputs": [
        {
          "internalType": "address",
          "name": "newImplementation",
          "type": "address"
        },
        {
          "internalType": "bytes",
          "name": "data",
          "type": "bytes"
        }
      ],
      "name": "upgradeToAndCall",
      "outputs": [],
      "stateMutability": "payable",
      "type": "function"
    },
    {
      "inputs": [],
      "name": "usdPlus",
      "outputs": [
        {
          "internalType": "contract IUsdPlusToken",
          "name": "",
          "type": "address"
        }
      ],
      "stateMutability": "view",
      "type": "function"
    },
    {
      "inputs": [],
      "name": "usdc",
      "outputs": [
        {
          "internalType": "contract IERC20",
          "name": "",
          "type": "address"
        }
      ],
      "stateMutability": "view",
      "type": "function"
    }
  ],
  "numDeployments": 2,
  "solcInputHash": "323eb6d9fe1c3ed2f307fb1de7613eb2",
  "bytecode": "0x60a06040523060601b6080523480156200001857600080fd5b50600054610100900460ff16158080156200003a5750600054600160ff909116105b806200006a575062000057306200014460201b620031041760201c565b1580156200006a575060005460ff166001145b620000d25760405162461bcd60e51b815260206004820152602e60248201527f496e697469616c697a61626c653a20636f6e747261637420697320616c72656160448201526d191e481a5b9a5d1a585b1a5e995960921b606482015260840160405180910390fd5b6000805460ff191660011790558015620000f6576000805461ff0019166101001790555b80156200013d576000805461ff0019169055604051600181527f7f26b83ff96e1f2b6a682f133852f6798a09c465da95921460cefb38474024989060200160405180910390a15b5062000153565b6001600160a01b03163b151590565b60805160601c614ad26200018e60003960008181610b6701528181610ba701528181610e2801528181610e680152610ef70152614ad26000f3fe60806040526004361061036b5760003560e01c80639cca16d8116101c6578063cecbbc07116100f7578063ea96f8ff11610095578063f72c0d8b1161006f578063f72c0d8b14610979578063f90766a6146109ad578063fb0ecfa4146109c4578063fb5b82d0146109e457600080fd5b8063ea96f8ff14610919578063f3869e8d14610939578063f6670bd61461095957600080fd5b8063d7d8b7a7116100d1578063d7d8b7a7146108a2578063da909b09146108b9578063db006a75146108d9578063e84d4fcb146108f957600080fd5b8063cecbbc071461084a578063d2f7265a14610861578063d547741f1461088257600080fd5b8063b69ef8a811610164578063bc890b7e1161013e578063bc890b7e146107e5578063c12e90e9146107fc578063cbc7854e14610813578063ce1aa76b1461083357600080fd5b8063b69ef8a814610790578063b7dc3b18146107a5578063bc56bebf146107c557600080fd5b8063a8c62e76116101a0578063a8c62e7614610717578063af14052c14610738578063b200deda14610759578063b262bc981461077057600080fd5b80639cca16d8146106c2578063a217fddf146106e2578063a4bb42a1146106f757600080fd5b80634f1ef286116102a05780636d8ebaa81161023e5780638129fc1c116102185780638129fc1c146106615780638456cb591461067657806391d148541461068b578063965fa21e146106ab57600080fd5b80636d8ebaa8146106115780637559c329146106285780637c5261d81461064a57600080fd5b80635c975abb1161027a5780635c975abb146105ab5780635dbd733a146105c357806362f09895146105e557806363bd1d4a146105fc57600080fd5b80634f1ef28614610562578063514e460a1461057557806352d1902d1461059657600080fd5b806333a100ca1161030d5780633e413bee116102e75780633e413bee146105005780633f4ba83a1461052157806347062402146105365780634e2e992d1461054d57600080fd5b806333a100ca146104a057806336568abe146104c05780633659cfe6146104e057600080fd5b8063248a9ca311610349578063248a9ca3146104205780632552317c146104505780632b78fe78146104675780632f2ff15d1461047e57600080fd5b806301ffc9a7146103705780630ffd778e146103a5578063182531f8146103e7575b600080fd5b34801561037c57600080fd5b5061039061038b366004614372565b610a04565b60405190151581526020015b60405180910390f35b3480156103b157600080fd5b506103d97f09b6fca8f5f3ab2900d9586d1d15872611c1bd42b268b973ad886d4f2646b56081565b60405190815260200161039c565b3480156103f357600080fd5b5061014154610408906001600160a01b031681565b6040516001600160a01b03909116815260200161039c565b34801561042c57600080fd5b506103d961043b36600461431b565b60009081526065602052604090206001015490565b34801561045c57600080fd5b506103d961013e5481565b34801561047357600080fd5b506103d961013f5481565b34801561048a57600080fd5b5061049e61049936600461434d565b610a3b565b005b3480156104ac57600080fd5b5061049e6104bb36600461414d565b610a65565b3480156104cc57600080fd5b5061049e6104db36600461434d565b610ade565b3480156104ec57600080fd5b5061049e6104fb36600461414d565b610b5c565b34801561050c57600080fd5b5061013054610408906001600160a01b031681565b34801561052d57600080fd5b5061049e610c3c565b34801561054257600080fd5b506103d96101335481565b34801561055957600080fd5b5061049e610c7a565b61049e6105703660046141c0565b610e1d565b34801561058157600080fd5b5061012f54610408906001600160a01b031681565b3480156105a257600080fd5b506103d9610eea565b3480156105b757600080fd5b5060fb5460ff16610390565b3480156105cf57600080fd5b506103d9600080516020614a3683398151915281565b3480156105f157600080fd5b506103d96101345481565b34801561060857600080fd5b5061049e610f9d565b34801561061d57600080fd5b506103d961013b5481565b34801561063457600080fd5b506103d9600080516020614a1683398151915281565b34801561065657600080fd5b506103d96101405481565b34801561066d57600080fd5b5061049e610fad565b34801561068257600080fd5b5061049e61118c565b34801561069757600080fd5b506103906106a636600461434d565b6111c8565b3480156106b757600080fd5b506103d96101355481565b3480156106ce57600080fd5b5061049e6106dd366004614418565b6111f3565b3480156106ee57600080fd5b506103d9600081565b34801561070357600080fd5b5061049e61071236600461414d565b611264565b34801561072357600080fd5b5061012e54610408906001600160a01b031681565b34801561074457600080fd5b5061013154610408906001600160a01b031681565b34801561076557600080fd5b506103d96101375481565b34801561077c57600080fd5b5061049e61078b366004614418565b6112da565b34801561079c57600080fd5b5061049e611360565b3480156107b157600080fd5b506103d96107c036600461439c565b611407565b3480156107d157600080fd5b5061049e6107e0366004614418565b6118f3565b3480156107f157600080fd5b506103d96101385481565b34801561080857600080fd5b506103d96101365481565b34801561081f57600080fd5b5061049e61082e366004614187565b611979565b34801561083f57600080fd5b506103d961013c5481565b34801561085657600080fd5b506103d961013d5481565b34801561086d57600080fd5b5061012d54610408906001600160a01b031681565b34801561088e57600080fd5b5061049e61089d36600461434d565b611a55565b3480156108ae57600080fd5b506103d961013a5481565b3480156108c557600080fd5b5061049e6108d436600461414d565b611a7a565b3480156108e557600080fd5b506103d96108f436600461431b565b611aea565b34801561090557600080fd5b506103d9610914366004614284565b612026565b34801561092557600080fd5b5061049e610934366004614418565b612365565b34801561094557600080fd5b5061049e61095436600461443a565b6123eb565b34801561096557600080fd5b5061049e610974366004614284565b61256f565b34801561098557600080fd5b506103d97f189ab7a9244df0848122154315af71fe140f3db0fe014031783b0946b8c9d2e381565b3480156109b957600080fd5b506103d96101395481565b3480156109d057600080fd5b5061049e6109df366004614418565b612fe2565b3480156109f057600080fd5b5061049e6109ff36600461414d565b613068565b60006001600160e01b03198216637965db0b60e01b1480610a3557506301ffc9a760e01b6001600160e01b03198316145b92915050565b600082815260656020526040902060010154610a5681613113565b610a60838361311d565b505050565b610a706000336111c8565b610a955760405162461bcd60e51b8152600401610a8c90614691565b60405180910390fd5b6001600160a01b038116610abb5760405162461bcd60e51b8152600401610a8c906146f6565b61012e80546001600160a01b0319166001600160a01b0392909216919091179055565b6001600160a01b0381163314610b4e5760405162461bcd60e51b815260206004820152602f60248201527f416363657373436f6e74726f6c3a2063616e206f6e6c792072656e6f756e636560448201526e103937b632b9903337b91039b2b63360891b6064820152608401610a8c565b610b5882826131a3565b5050565b306001600160a01b037f0000000000000000000000000000000000000000000000000000000000000000161415610ba55760405162461bcd60e51b8152600401610a8c9061454d565b7f00000000000000000000000000000000000000000000000000000000000000006001600160a01b0316610bee600080516020614a56833981519152546001600160a01b031690565b6001600160a01b031614610c145760405162461bcd60e51b8152600401610a8c90614599565b610c1d8161320a565b60408051600080825260208201909252610c3991839190613234565b50565b610c54600080516020614a36833981519152336111c8565b610c705760405162461bcd60e51b8152600401610a8c906146bf565b610c786133ae565b565b6000610d0d61012e60009054906101000a90046001600160a01b03166001600160a01b031663a3673b386040518163ffffffff1660e01b815260040160206040518083038186803b158015610cce57600080fd5b505afa158015610ce2573d6000803e3d6000fd5b505050506040513d601f19601f82011682018060405250810190610d069190614334565b600f613400565b905061012e60009054906101000a90046001600160a01b03166001600160a01b0316634e2e992d6040518163ffffffff1660e01b8152600401600060405180830381600087803b158015610d6057600080fd5b505af1158015610d74573d6000803e3d6000fd5b505050508061012e60009054906101000a90046001600160a01b03166001600160a01b031663a3673b386040518163ffffffff1660e01b815260040160206040518083038186803b158015610dc857600080fd5b505afa158015610ddc573d6000803e3d6000fd5b505050506040513d601f19601f82011682018060405250810190610e009190614334565b11610c395760405162461bcd60e51b8152600401610a8c90614778565b306001600160a01b037f0000000000000000000000000000000000000000000000000000000000000000161415610e665760405162461bcd60e51b8152600401610a8c9061454d565b7f00000000000000000000000000000000000000000000000000000000000000006001600160a01b0316610eaf600080516020614a56833981519152546001600160a01b031690565b6001600160a01b031614610ed55760405162461bcd60e51b8152600401610a8c90614599565b610ede8261320a565b610b5882826001613234565b6000306001600160a01b037f00000000000000000000000000000000000000000000000000000000000000001614610f8a5760405162461bcd60e51b815260206004820152603860248201527f555550535570677261646561626c653a206d757374206e6f742062652063616c60448201527f6c6564207468726f7567682064656c656761746563616c6c00000000000000006064820152608401610a8c565b50600080516020614a5683398151915290565b610fa5613423565b610c78613469565b600054610100900460ff1615808015610fcd5750600054600160ff909116105b80610fe75750303b158015610fe7575060005460ff166001145b61104a5760405162461bcd60e51b815260206004820152602e60248201527f496e697469616c697a61626c653a20636f6e747261637420697320616c72656160448201526d191e481a5b9a5d1a585b1a5e995960921b6064820152608401610a8c565b6000805460ff19166001179055801561106d576000805461ff0019166101001790555b611075613aeb565b61107d613b12565b611085613aeb565b61109060003361311d565b6110ba7f189ab7a9244df0848122154315af71fe140f3db0fe014031783b0946b8c9d2e33361311d565b6110e47f09b6fca8f5f3ab2900d9586d1d15872611c1bd42b268b973ad886d4f2646b5603361311d565b6028610133819055620186a0610134819055610135919091556101368190556103e8610137556101388190556127106101395561013a55636195978061013b556201518061013c5561038461013d55620f43d061013f55620f45f6610140558015610c39576000805461ff0019169055604051600181527f7f26b83ff96e1f2b6a682f133852f6798a09c465da95921460cefb3847402498906020015b60405180910390a150565b6111a4600080516020614a36833981519152336111c8565b6111c05760405162461bcd60e51b8152600401610a8c906146bf565b610c78613b41565b60009182526065602090815260408084206001600160a01b0393909316845291905290205460ff1690565b6111fe6000336111c8565b61121a5760405162461bcd60e51b8152600401610a8c90614691565b61013f82905561014081905560408051838152602081018390527f164d29c07aa1410447214bda4ceeae682b23796531b6b4d1d674f72953aa7f6591015b60405180910390a15050565b61126f6000336111c8565b61128b5760405162461bcd60e51b8152600401610a8c90614691565b61014180546001600160a01b0319166001600160a01b0383169081179091556040519081527fc388495b5a8a549e1885691ef3b8b1cb2b97a91365bbc9f26f488d28caaab84d90602001611181565b6112e56000336111c8565b6113015760405162461bcd60e51b8152600401610a8c90614691565b8061131e5760405162461bcd60e51b8152600401610a8c906147a8565b61013982905561013a81905560408051838152602081018390527f380b562b665401553181201ec2005b59fbf2667bc4140e4f80fe613f90b33bcc9101611258565b60006113b461012e60009054906101000a90046001600160a01b03166001600160a01b031663a3673b386040518163ffffffff1660e01b815260040160206040518083038186803b158015610cce57600080fd5b905061012e60009054906101000a90046001600160a01b03166001600160a01b031663b69ef8a86040518163ffffffff1660e01b8152600401600060405180830381600087803b158015610d6057600080fd5b6000611411613423565b611429600080516020614a16833981519152336111c8565b611474574361013e54106114745760405162461bcd60e51b81526020600482015260126024820152714f6e6c79206f6e636520696e20626c6f636b60701b6044820152606401610a8c565b4361013e5561012f546040516370a0823160e01b81523360048201526000916001600160a01b0316906370a082319060240160206040518083038186803b1580156114be57600080fd5b505afa1580156114d2573d6000803e3d6000fd5b505050506040513d601f19601f820116820180604052508101906114f69190614334565b9050848110156115485760405162461bcd60e51b815260206004820152601860248201527f4e6f7420656e6f75676820746f6b656e7320746f2062757900000000000000006044820152606401610a8c565b60006115e68661012e60009054906101000a90046001600160a01b03166001600160a01b031663a3673b386040518163ffffffff1660e01b815260040160206040518083038186803b15801561159d57600080fd5b505afa1580156115b1573d6000803e3d6000fd5b505050506040513d601f19601f820116820180604052508101906115d59190614334565b6115df91906147df565b6004613400565b61012f5461012e546040516323b872dd60e01b81523360048201526001600160a01b039182166024820152604481018a905292935016906323b872dd90606401602060405180830381600087803b15801561164057600080fd5b505af1158015611654573d6000803e3d6000fd5b505050506040513d601f19601f8201168201806040525081019061167891906142f9565b5061012e5460405163534a7e1d60e11b8152600481018890526001600160a01b039091169063a694fc3a90602401600060405180830381600087803b1580156116c057600080fd5b505af11580156116d4573d6000803e3d6000fd5b505050508061012e60009054906101000a90046001600160a01b03166001600160a01b031663a3673b386040518163ffffffff1660e01b815260040160206040518083038186803b15801561172857600080fd5b505afa15801561173c573d6000803e3d6000fd5b505050506040513d601f19601f820116820180604052508101906117609190614334565b1161177d5760405162461bcd60e51b8152600401610a8c90614778565b600080611798600080516020614a16833981519152336111c8565b6117cb5761013454610133546117ae908a614907565b6117b891906147f7565b91506117c48289614926565b90506117ce565b50865b610131546040516340c10f1960e01b8152336004820152602481018390526001600160a01b03909116906340c10f1990604401600060405180830381600087803b15801561181b57600080fd5b505af115801561182f573d6000803e3d6000fd5b5050505060008211156118a75761013154610132546040516340c10f1960e01b81526001600160a01b039182166004820152602481018590529116906340c10f1990604401600060405180830381600087803b15801561188e57600080fd5b505af11580156118a2573d6000803e3d6000fd5b505050505b7f5215f03b099407f64e52d76ef2416a46b32915d572e87db5d40282538ed364848183338a8a6040516118de9594939291906145e5565b60405180910390a193505050505b9392505050565b6118fe6000336111c8565b61191a5760405162461bcd60e51b8152600401610a8c90614691565b806119375760405162461bcd60e51b8152600401610a8c906147a8565b61013582905561013681905560408051838152602081018390527f9fb7dbd1f2c1bd33dd68f78a38f699ff1ca487d7a7211ecc7df31d919f52043d9101611258565b6119846000336111c8565b6119a05760405162461bcd60e51b8152600401610a8c90614691565b6001600160a01b0382166119c65760405162461bcd60e51b8152600401610a8c906146f6565b6001600160a01b0381166119ec5760405162461bcd60e51b8152600401610a8c906146f6565b61012f80546001600160a01b038481166001600160a01b0319928316811790935561013180549185169190921681179091556040805192835260208301919091527fdcc6331013de89f8c595d5328f0a724194f113cb6f8f2a707b3dff6de13f0d179101611258565b600082815260656020526040902060010154611a7081613113565b610a6083836131a3565b611a856000336111c8565b611aa15760405162461bcd60e51b8152600401610a8c90614691565b6001600160a01b038116611ac75760405162461bcd60e51b8152600401610a8c906146f6565b61012d80546001600160a01b0319166001600160a01b0392909216919091179055565b6000611af4613423565b611b0c600080516020614a16833981519152336111c8565b611b57574361013e5410611b575760405162461bcd60e51b81526020600482015260126024820152714f6e6c79206f6e636520696e20626c6f636b60701b6044820152606401610a8c565b4361013e55600080611b77600080516020614a16833981519152336111c8565b611baa576101365461013554611b8d9086614907565b611b9791906147f7565b9150611ba38285614926565b9050611bad565b50825b6000611c448261012e60009054906101000a90046001600160a01b03166001600160a01b031663a3673b386040518163ffffffff1660e01b815260040160206040518083038186803b158015611c0257600080fd5b505afa158015611c16573d6000803e3d6000fd5b505050506040513d601f19601f82011682018060405250810190611c3a9190614334565b6115df9190614926565b61012e546040516341c0f0c160e11b8152600481018590523060248201529192506000916001600160a01b0390911690638381e18290604401602060405180830381600087803b158015611c9757600080fd5b505af1158015611cab573d6000803e3d6000fd5b505050506040513d601f19601f82011682018060405250810190611ccf9190614334565b90508161012e60009054906101000a90046001600160a01b03166001600160a01b031663a3673b386040518163ffffffff1660e01b815260040160206040518083038186803b158015611d2157600080fd5b505afa158015611d35573d6000803e3d6000fd5b505050506040513d601f19601f82011682018060405250810190611d599190614334565b11611d765760405162461bcd60e51b8152600401610a8c90614778565b61013154604051632770a7eb60e21b8152336004820152602481018890526001600160a01b0390911690639dc29fac90604401600060405180830381600087803b158015611dc357600080fd5b505af1158015611dd7573d6000803e3d6000fd5b505050506000841115611e4f5761013154610132546040516340c10f1960e01b81526001600160a01b039182166004820152602481018790529116906340c10f1990604401600060405180830381600087803b158015611e3657600080fd5b505af1158015611e4a573d6000803e3d6000fd5b505050505b61012f546040516370a0823160e01b815230600482015282916001600160a01b0316906370a082319060240160206040518083038186803b158015611e9357600080fd5b505afa158015611ea7573d6000803e3d6000fd5b505050506040513d601f19601f82011682018060405250810190611ecb9190614334565b1015611f285760405162461bcd60e51b815260206004820152602660248201527f4e6f7420656e6f75676820666f72207472616e7366657220756e7374616b6564604482015265105b5bdd5b9d60d21b6064820152608401610a8c565b61012f5460405163a9059cbb60e01b8152336004820152602481018590526001600160a01b039091169063a9059cbb90604401602060405180830381600087803b158015611f7557600080fd5b505af1158015611f89573d6000803e3d6000fd5b505050506040513d601f19601f82011682018060405250810190611fad91906142f9565b506040805160a08082526006908201526572656465656d60d01b60c08201526020810185905290810185905233606082015260e0608082018190526000908201527f5215f03b099407f64e52d76ef2416a46b32915d572e87db5d40282538ed36484906101000160405180910390a15090949350505050565b600080805b61013160009054906101000a90046001600160a01b03166001600160a01b0316623660886040518163ffffffff1660e01b815260040160206040518083038186803b15801561207957600080fd5b505afa15801561208d573d6000803e3d6000fd5b505050506040513d601f19601f820116820180604052508101906120b19190614334565b8110156121535761013154604051636736fbdf60e11b8152600481018390526001600160a01b039091169063ce6df7be9060240160206040518083038186803b1580156120fd57600080fd5b505afa158015612111573d6000803e3d6000fd5b505050506040513d601f19601f820116820180604052508101906121359190614334565b61213f90836147df565b915061214c6001826147df565b905061202b565b506000805b8481101561233e576000868683818110612174576121746149d4565b9050602002016020810190612189919061414d565b90506000816001600160a01b031663313ce5676040518163ffffffff1660e01b815260040160206040518083038186803b1580156121c657600080fd5b505afa1580156121da573d6000803e3d6000fd5b505050506040513d601f19601f820116820180604052508101906121fe9190614466565b905061013160009054906101000a90046001600160a01b03166001600160a01b031663313ce5676040518163ffffffff1660e01b815260040160206040518083038186803b15801561224f57600080fd5b505afa158015612263573d6000803e3d6000fd5b505050506040513d601f19601f820116820180604052508101906122879190614466565b612291908261493d565b61229c90600a61485c565b6040516370a0823160e01b81523060048201526001600160a01b038416906370a082319060240160206040518083038186803b1580156122db57600080fd5b505afa1580156122ef573d6000803e3d6000fd5b505050506040513d601f19601f820116820180604052508101906123139190614334565b61231d91906147f7565b61232790856147df565b935050508080612336906149a3565b915050612158565b508082111561235a576123518183614926565b92505050610a35565b600092505050610a35565b6123706000336111c8565b61238c5760405162461bcd60e51b8152600401610a8c90614691565b806123a95760405162461bcd60e51b8152600401610a8c906147a8565b61013782905561013881905560408051838152602081018390527fc68fc690a0e94f03420df48c2c267dae330c1ff6a39f32a1f90d8baf9e67451e9101611258565b6123f66000336111c8565b6124125760405162461bcd60e51b8152600401610a8c90614691565b8261245f5760405162461bcd60e51b815260206004820181905260248201527f5a65726f205f6e6578745061796f757454696d65206e6f7420616c6c6f7765646044820152606401610a8c565b816124ac5760405162461bcd60e51b815260206004820152601e60248201527f5a65726f205f7061796f7574506572696f64206e6f7420616c6c6f77656400006044820152606401610a8c565b8083116125175760405162461bcd60e51b815260206004820152603360248201527f5f6e6578745061796f757454696d652073686f7564206265206d6f7265207468604482015272616e205f7061796f757454696d6552616e676560681b6064820152608401610a8c565b61013b83905561013c82905561013d81905560408051848152602081018490529081018290527f182705f356ea3bbbd12c7b4761586a554d391a7703345f81166bbe3f946444999060600160405180910390a1505050565b612587600080516020614a36833981519152336111c8565b6125a35760405162461bcd60e51b8152600401610a8c906146bf565b6000805b61013160009054906101000a90046001600160a01b03166001600160a01b0316623660886040518163ffffffff1660e01b815260040160206040518083038186803b1580156125f557600080fd5b505afa158015612609573d6000803e3d6000fd5b505050506040513d601f19601f8201168201806040525081019061262d9190614334565b8110156126cf5761013154604051636736fbdf60e11b8152600481018390526001600160a01b039091169063ce6df7be9060240160206040518083038186803b15801561267957600080fd5b505afa15801561268d573d6000803e3d6000fd5b505050506040513d601f19601f820116820180604052508101906126b19190614334565b6126bb90836147df565b91506126c86001826147df565b90506125a7565b5060006126dc8484612026565b111561272a5760405162461bcd60e51b815260206004820152601a60248201527f4e6f7420656e6f75676820617373657420666f722065786973740000000000006044820152606401610a8c565b60008267ffffffffffffffff811115612745576127456149ea565b60405190808252806020026020018201604052801561276e578160200160208202803683370190505b50905060005b8381101561284b5784848281811061278e5761278e6149d4565b90506020020160208101906127a3919061414d565b6040516370a0823160e01b81523060048201526001600160a01b0391909116906370a082319060240160206040518083038186803b1580156127e457600080fd5b505afa1580156127f8573d6000803e3d6000fd5b505050506040513d601f19601f8201168201806040525081019061281c9190614334565b82828151811061282e5761282e6149d4565b602090810291909101015280612843816149a3565b915050612774565b5061013154604080516206cc1160e31b815290516000926001600160a01b03169162366088916004808301926020929190829003018186803b15801561289057600080fd5b505afa1580156128a4573d6000803e3d6000fd5b505050506040513d601f19601f820116820180604052508101906128c89190614334565b67ffffffffffffffff8111156128e0576128e06149ea565b604051908082528060200260200182016040528015612909578160200160208202803683370190505b509050600061013160009054906101000a90046001600160a01b03166001600160a01b0316623660886040518163ffffffff1660e01b815260040160206040518083038186803b15801561295c57600080fd5b505afa158015612970573d6000803e3d6000fd5b505050506040513d601f19601f820116820180604052508101906129949190614334565b67ffffffffffffffff8111156129ac576129ac6149ea565b6040519080825280602002602001820160405280156129d5578160200160208202803683370190505b50905060005b61013160009054906101000a90046001600160a01b03166001600160a01b0316623660886040518163ffffffff1660e01b815260040160206040518083038186803b158015612a2957600080fd5b505afa158015612a3d573d6000803e3d6000fd5b505050506040513d601f19601f82011682018060405250810190612a619190614334565b811015612e365760005b86811015612c6e576000888883818110612a8757612a876149d4565b9050602002016020810190612a9c919061414d565b61013154604051636736fbdf60e11b81526004810186905291925060009189916001600160a01b03169063ce6df7be9060240160206040518083038186803b158015612ae757600080fd5b505afa158015612afb573d6000803e3d6000fd5b505050506040513d601f19601f82011682018060405250810190612b1f9190614334565b888581518110612b3157612b316149d4565b6020026020010151612b439190614907565b612b4d91906147f7565b61013154604051632435987960e01b8152600481018790529192506001600160a01b038481169263a9059cbb92919091169063243598799060240160206040518083038186803b158015612ba057600080fd5b505afa158015612bb4573d6000803e3d6000fd5b505050506040513d601f19601f82011682018060405250810190612bd8919061416a565b6040516001600160e01b031960e084901b1681526001600160a01b03909116600482015260248101849052604401602060405180830381600087803b158015612c2057600080fd5b505af1158015612c34573d6000803e3d6000fd5b505050506040513d601f19601f82011682018060405250810190612c5891906142f9565b5050508080612c66906149a3565b915050612a6b565b5061013154604051632435987960e01b8152600481018390526001600160a01b039091169063243598799060240160206040518083038186803b158015612cb457600080fd5b505afa158015612cc8573d6000803e3d6000fd5b505050506040513d601f19601f82011682018060405250810190612cec919061416a565b838281518110612cfe57612cfe6149d4565b6001600160a01b03928316602091820292909201015261013154604051632435987960e01b8152600481018490529116906370a0823190829063243598799060240160206040518083038186803b158015612d5857600080fd5b505afa158015612d6c573d6000803e3d6000fd5b505050506040513d601f19601f82011682018060405250810190612d90919061416a565b6040516001600160e01b031960e084901b1681526001600160a01b03909116600482015260240160206040518083038186803b158015612dcf57600080fd5b505afa158015612de3573d6000803e3d6000fd5b505050506040513d601f19601f82011682018060405250810190612e079190614334565b828281518110612e1957612e196149d4565b602090810291909101015280612e2e816149a3565b9150506129db565b5060005b8251811015612f05576101315483516001600160a01b0390911690639dc29fac90859084908110612e6d57612e6d6149d4565b6020026020010151848481518110612e8757612e876149d4565b60200260200101516040518363ffffffff1660e01b8152600401612ec09291906001600160a01b03929092168252602082015260400190565b600060405180830381600087803b158015612eda57600080fd5b505af1158015612eee573d6000803e3d6000fd5b505050508080612efd906149a3565b915050612e3a565b5061013160009054906101000a90046001600160a01b03166001600160a01b03166318160ddd6040518163ffffffff1660e01b815260040160206040518083038186803b158015612f5557600080fd5b505afa158015612f69573d6000803e3d6000fd5b505050506040513d601f19601f82011682018060405250810190612f8d9190614334565b15612fda5760405162461bcd60e51b815260206004820152601b60248201527f7265626173652e746f74616c537570706c79206e6f74207a65726f00000000006044820152606401610a8c565b505050505050565b612fed6000336111c8565b6130095760405162461bcd60e51b8152600401610a8c90614691565b806130265760405162461bcd60e51b8152600401610a8c906147a8565b61013382905561013481905560408051838152602081018390527f28e297c7c282931a994191b735b01eaf17558295f761512a7047f4e1b8dc3b0b9101611258565b6130736000336111c8565b61308f5760405162461bcd60e51b8152600401610a8c90614691565b6001600160a01b0381166130b55760405162461bcd60e51b8152600401610a8c906146f6565b61013280546001600160a01b0319166001600160a01b0383169081179091556040519081527f14308adaec1375a4db1882d93c05b25b2a86d3d0dd683f8f94a3a55190d1d35b90602001611181565b6001600160a01b03163b151590565b610c398133613b7e565b61312782826111c8565b610b585760008281526065602090815260408083206001600160a01b03851684529091529020805460ff1916600117905561315f3390565b6001600160a01b0316816001600160a01b0316837f2f8788117e7eff1d82e926ec794901d17c78024a50270940304540a733656f0d60405160405180910390a45050565b6131ad82826111c8565b15610b585760008281526065602090815260408083206001600160a01b0385168085529252808320805460ff1916905551339285917ff6391f5c32d9c69d2a47ea670b442974b53935d1edc7fd64eb21e047a839171b9190a45050565b7f189ab7a9244df0848122154315af71fe140f3db0fe014031783b0946b8c9d2e3610b5881613113565b7f4910fdfa16fed3260ed0e7147f7cc6da11a60208b5b9406d12a635614ffd91435460ff161561326757610a6083613bd7565b826001600160a01b03166352d1902d6040518163ffffffff1660e01b815260040160206040518083038186803b1580156132a057600080fd5b505afa9250505080156132d0575060408051601f3d908101601f191682019092526132cd91810190614334565b60015b6133335760405162461bcd60e51b815260206004820152602e60248201527f45524331393637557067726164653a206e657720696d706c656d656e7461746960448201526d6f6e206973206e6f74205555505360901b6064820152608401610a8c565b600080516020614a5683398151915281146133a25760405162461bcd60e51b815260206004820152602960248201527f45524331393637557067726164653a20756e737570706f727465642070726f786044820152681a58589b195555525160ba1b6064820152608401610a8c565b50610a60838383613c73565b6133b6613c9e565b60fb805460ff191690557f5db9ee0a495bf2e6ff9c91a7834c1ba4fdd244a5e8aa4e537bd38aeae4b073aa335b6040516001600160a01b03909116815260200160405180910390a1565b600061271061340f8382614926565b6134199085614907565b6118ec91906147f7565b60fb5460ff1615610c785760405162461bcd60e51b815260206004820152601060248201526f14185d5cd8589b194e881c185d5cd95960821b6044820152606401610a8c565b61012e54604051633bd73ee360e21b81526001600160a01b03909116600482018190529063ef5cfb8c90602401602060405180830381600087803b1580156134b057600080fd5b505af11580156134c4573d6000803e3d6000fd5b505050506040513d601f19601f820116820180604052508101906134e89190614334565b506134f1611360565b61013154604080516318160ddd60e01b815290516000926001600160a01b0316916318160ddd916004808301926020929190829003018186803b15801561353757600080fd5b505afa15801561354b573d6000803e3d6000fd5b505050506040513d601f19601f8201168201806040525081019061356f9190614334565b9050600061012e60009054906101000a90046001600160a01b03166001600160a01b031663a3673b386040518163ffffffff1660e01b815260040160206040518083038186803b1580156135c257600080fd5b505afa1580156135d6573d6000803e3d6000fd5b505050506040513d601f19601f820116820180604052508101906135fa9190614334565b9050600080600080600086861115613699576136168787614926565b91506101385461016d61013754846103e86136319190614907565b61363b9190614907565b61364591906147f7565b61364f91906147f7565b935061365b8483614926565b915061013a5461013954836136709190614907565b61367a91906147f7565b92506136868383614926565b915061369283856147df565b94506136a6565b6136a38688614926565b90505b6136b08587614926565b955060006136bd87613ce7565b9050600061375261013160009054906101000a90046001600160a01b03166001600160a01b031663b1bf962d6040518163ffffffff1660e01b815260040160206040518083038186803b15801561371357600080fd5b505afa158015613727573d6000803e3d6000fd5b505050506040513d601f19601f8201168201806040525081019061374b9190614334565b8390613d26565b9050600061013160009054906101000a90046001600160a01b03166001600160a01b031663bbf44f336040518163ffffffff1660e01b815260040160206040518083038186803b1580156137a557600080fd5b505afa1580156137b9573d6000803e3d6000fd5b505050506040513d601f19601f820116820180604052508101906137dd9190614334565b90506000816137ef84620f4240614907565b6137f991906147f7565b905061013f5481116138405760405162461bcd60e51b815260206004820152601060248201526f2232b63a309030b13937b0b21d36b4b760811b6044820152606401610a8c565b8061014054116138855760405162461bcd60e51b815260206004820152601060248201526f088cad8e8c240c2c4e4dec2c874dac2f60831b6044820152606401610a8c565b6101315460405163b2be259160e01b8152600481018590526001600160a01b039091169063b2be259190602401600060405180830381600087803b1580156138cc57600080fd5b505af11580156138e0573d6000803e3d6000fd5b5050505060008911156139aa57610132546001600160a01b031661393f5760405162461bcd60e51b8152602060048201526016602482015275436f6c6c6563746f722061646472657373207a65726f60501b6044820152606401610a8c565b61013154610132546040516340c10f1960e01b81526001600160a01b039182166004820152602481018c90529116906340c10f1990604401600060405180830381600087803b15801561399157600080fd5b505af11580156139a5573d6000803e3d6000fd5b505050505b610141546001600160a01b031615613a265761014160009054906101000a90046001600160a01b03166001600160a01b031663f14a74386040518163ffffffff1660e01b8152600401600060405180830381600087803b158015613a0d57600080fd5b505af1158015613a21573d6000803e3d6000fd5b505050505b6040805189815260208101899052908101879052606081018690527f106a59d3805ed5b61e26818a11c688e650c883df2ca2d625f9d9ac6fae9d91799060800160405180910390a15b61013d5461013b54613a819190614926565b4210613aa25761013c5461013b54613a9991906147df565b61013b55613a6f565b7f6654b7187a0560c4c326844142156c2adf52738d0a615487e0e2a5cd9823c2c461013b54604051613ad691815260200190565b60405180910390a15050505050505050505050565b600054610100900460ff16610c785760405162461bcd60e51b8152600401610a8c9061472d565b600054610100900460ff16613b395760405162461bcd60e51b8152600401610a8c9061472d565b610c78613dfa565b613b49613423565b60fb805460ff191660011790557f62e78cea01bee320cd4e420270b5ea74000d11b0c9f74754ebdbfc544b05a2586133e33390565b613b8882826111c8565b610b5857613b9581613e2d565b613ba0836020613e3f565b604051602001613bb19291906144a5565b60408051601f198184030181529082905262461bcd60e51b8252610a8c9160040161451a565b6001600160a01b0381163b613c445760405162461bcd60e51b815260206004820152602d60248201527f455243313936373a206e657720696d706c656d656e746174696f6e206973206e60448201526c1bdd08184818dbdb9d1c9858dd609a1b6064820152608401610a8c565b600080516020614a5683398151915280546001600160a01b0319166001600160a01b0392909216919091179055565b613c7c83613fdb565b600082511180613c895750805b15610a6057613c98838361401b565b50505050565b60fb5460ff16610c785760405162461bcd60e51b815260206004820152601460248201527314185d5cd8589b194e881b9bdd081c185d5cd95960621b6044820152606401610a8c565b600080613cf8633b9aca0084614907565b905082613d09633b9aca00836147f7565b14610a355760405162461bcd60e51b8152600401610a8c9061464e565b600081613d755760405162461bcd60e51b815260206004820152601c60248201527f4572726f72732e4d4154485f4449564953494f4e5f42595f5a45524f000000006044820152606401610a8c565b6000613d826002846147f7565b90506b033b2e3c9fd0803ce8000000613d9d82600019614926565b613da791906147f7565b841115613dc65760405162461bcd60e51b8152600401610a8c9061464e565b8281613dde6b033b2e3c9fd0803ce800000087614907565b613de891906147df565b613df291906147f7565b949350505050565b600054610100900460ff16613e215760405162461bcd60e51b8152600401610a8c9061472d565b60fb805460ff19169055565b6060610a356001600160a01b03831660145b60606000613e4e836002614907565b613e599060026147df565b67ffffffffffffffff811115613e7157613e716149ea565b6040519080825280601f01601f191660200182016040528015613e9b576020820181803683370190505b509050600360fc1b81600081518110613eb657613eb66149d4565b60200101906001600160f81b031916908160001a905350600f60fb1b81600181518110613ee557613ee56149d4565b60200101906001600160f81b031916908160001a9053506000613f09846002614907565b613f149060016147df565b90505b6001811115613f8c576f181899199a1a9b1b9c1cb0b131b232b360811b85600f1660108110613f4857613f486149d4565b1a60f81b828281518110613f5e57613f5e6149d4565b60200101906001600160f81b031916908160001a90535060049490941c93613f858161498c565b9050613f17565b5083156118ec5760405162461bcd60e51b815260206004820181905260248201527f537472696e67733a20686578206c656e67746820696e73756666696369656e746044820152606401610a8c565b613fe481613bd7565b6040516001600160a01b038216907fbc7cd75a20ee27fd9adebab32041f755214dbc6bffa90cc0225b39da2e5c2d3b90600090a250565b60606001600160a01b0383163b6140835760405162461bcd60e51b815260206004820152602660248201527f416464726573733a2064656c65676174652063616c6c20746f206e6f6e2d636f6044820152651b9d1c9858dd60d21b6064820152608401610a8c565b600080846001600160a01b03168460405161409e9190614489565b600060405180830381855af49150503d80600081146140d9576040519150601f19603f3d011682016040523d82523d6000602084013e6140de565b606091505b50915091506141068282604051806060016040528060278152602001614a766027913961410f565b95945050505050565b6060831561411e5750816118ec565b6118ec83838151156141335781518083602001fd5b8060405162461bcd60e51b8152600401610a8c919061451a565b60006020828403121561415f57600080fd5b81356118ec81614a00565b60006020828403121561417c57600080fd5b81516118ec81614a00565b6000806040838503121561419a57600080fd5b82356141a581614a00565b915060208301356141b581614a00565b809150509250929050565b600080604083850312156141d357600080fd5b82356141de81614a00565b9150602083013567ffffffffffffffff808211156141fb57600080fd5b818501915085601f83011261420f57600080fd5b813581811115614221576142216149ea565b604051601f8201601f19908116603f01168101908382118183101715614249576142496149ea565b8160405282815288602084870101111561426257600080fd5b8260208601602083013760006020848301015280955050505050509250929050565b6000806020838503121561429757600080fd5b823567ffffffffffffffff808211156142af57600080fd5b818501915085601f8301126142c357600080fd5b8135818111156142d257600080fd5b8660208260051b85010111156142e757600080fd5b60209290920196919550909350505050565b60006020828403121561430b57600080fd5b815180151581146118ec57600080fd5b60006020828403121561432d57600080fd5b5035919050565b60006020828403121561434657600080fd5b5051919050565b6000806040838503121561436057600080fd5b8235915060208301356141b581614a00565b60006020828403121561438457600080fd5b81356001600160e01b0319811681146118ec57600080fd5b6000806000604084860312156143b157600080fd5b83359250602084013567ffffffffffffffff808211156143d057600080fd5b818601915086601f8301126143e457600080fd5b8135818111156143f357600080fd5b87602082850101111561440557600080fd5b6020830194508093505050509250925092565b6000806040838503121561442b57600080fd5b50508035926020909101359150565b60008060006060848603121561444f57600080fd5b505081359360208301359350604090920135919050565b60006020828403121561447857600080fd5b815160ff811681146118ec57600080fd5b6000825161449b818460208701614960565b9190910192915050565b7f416363657373436f6e74726f6c3a206163636f756e74200000000000000000008152600083516144dd816017850160208801614960565b7001034b99036b4b9b9b4b733903937b6329607d1b601791840191820152835161450e816028840160208801614960565b01602801949350505050565b6020815260008251806020840152614539816040850160208701614960565b601f01601f19169190910160400192915050565b6020808252602c908201527f46756e6374696f6e206d7573742062652063616c6c6564207468726f7567682060408201526b19195b1959d85d1958d85b1b60a21b606082015260800190565b6020808252602c908201527f46756e6374696f6e206d7573742062652063616c6c6564207468726f7567682060408201526b6163746976652070726f787960a01b606082015260800190565b60a08152600360a08201526262757960e81b60c082015285602082015284604082015260018060a01b038416606082015260e060808201528160e082015260006101008385828501376000838501820152601f909301601f191690910190910195945050505050565b60208082526023908201527f4572726f72732e4d4154485f4d554c5449504c49434154494f4e5f4f564552466040820152624c4f5760e81b606082015260800190565b6020808252601490820152735265737472696374656420746f2061646d696e7360601b604082015260600190565b6020808252601d908201527f5265737472696374656420746f20506f7274666f6c696f204167656e74000000604082015260600190565b60208082526018908201527f5a65726f2061646472657373206e6f7420616c6c6f7765640000000000000000604082015260600190565b6020808252602b908201527f496e697469616c697a61626c653a20636f6e7472616374206973206e6f74206960408201526a6e697469616c697a696e6760a81b606082015260800190565b6020808252601690820152751b985d881b195cdcc81d1a185b88195e1c1958dd195960521b604082015260600190565b6020808252601c908201527f5a65726f2064656e6f6d696e61746f72206e6f7420616c6c6f77656400000000604082015260600190565b600082198211156147f2576147f26149be565b500190565b60008261481457634e487b7160e01b600052601260045260246000fd5b500490565b600181815b8085111561485457816000190482111561483a5761483a6149be565b8085161561484757918102915b93841c939080029061481e565b509250929050565b60006118ec60ff84168360008261487557506001610a35565b8161488257506000610a35565b816001811461489857600281146148a2576148be565b6001915050610a35565b60ff8411156148b3576148b36149be565b50506001821b610a35565b5060208310610133831016604e8410600b84101617156148e1575081810a610a35565b6148eb8383614819565b80600019048211156148ff576148ff6149be565b029392505050565b6000816000190483118215151615614921576149216149be565b500290565b600082821015614938576149386149be565b500390565b600060ff821660ff841680821015614957576149576149be565b90039392505050565b60005b8381101561497b578181015183820152602001614963565b83811115613c985750506000910152565b60008161499b5761499b6149be565b506000190190565b60006000198214156149b7576149b76149be565b5060010190565b634e487b7160e01b600052601160045260246000fd5b634e487b7160e01b600052603260045260246000fd5b634e487b7160e01b600052604160045260246000fd5b6001600160a01b0381168114610c3957600080fdfe262f8dca0440d5010bae937fe18daeae459dacb80622baddc3b4f10759ac952ad67ad422505496469a1adf6cdf9e5ee92ac5d33992843c9ecc4b2f6d6cde9137360894a13ba1a3210667c828492db98dca3e2076cc3735a920a3ca505d382bbc416464726573733a206c6f772d6c6576656c2064656c65676174652063616c6c206661696c6564a264697066735822122075bd485c61ab3988248bcf20abd5192292ed0ef751d96e14bb856353b918e11964736f6c63430008060033",
  "devdoc": {
    "kind": "dev",
    "methods": {
      "constructor": {
        "custom:oz-upgrades-unsafe-allow": "constructor"
      },
      "getRoleAdmin(bytes32)": {
        "details": "Returns the admin role that controls `role`. See {grantRole} and {revokeRole}. To change a role's admin, use {_setRoleAdmin}."
      },
      "grantRole(bytes32,address)": {
        "details": "Grants `role` to `account`. If `account` had not been already granted `role`, emits a {RoleGranted} event. Requirements: - the caller must have ``role``'s admin role. May emit a {RoleGranted} event."
      },
      "hasRole(bytes32,address)": {
        "details": "Returns `true` if `account` has been granted `role`."
      },
      "paused()": {
        "details": "Returns true if the contract is paused, and false otherwise."
      },
      "proxiableUUID()": {
        "details": "Implementation of the ERC1822 {proxiableUUID} function. This returns the storage slot used by the implementation. It is used to validate the implementation's compatibility when performing an upgrade. IMPORTANT: A proxy pointing at a proxiable contract should not be considered proxiable itself, because this risks bricking a proxy that upgrades to it, by delegating to itself until out of gas. Thus it is critical that this function revert if invoked through a proxy. This is guaranteed by the `notDelegated` modifier."
      },
      "renounceRole(bytes32,address)": {
        "details": "Revokes `role` from the calling account. Roles are often managed via {grantRole} and {revokeRole}: this function's purpose is to provide a mechanism for accounts to lose their privileges if they are compromised (such as when a trusted device is misplaced). If the calling account had been revoked `role`, emits a {RoleRevoked} event. Requirements: - the caller must be `account`. May emit a {RoleRevoked} event."
      },
      "revokeRole(bytes32,address)": {
        "details": "Revokes `role` from `account`. If `account` had been granted `role`, emits a {RoleRevoked} event. Requirements: - the caller must have ``role``'s admin role. May emit a {RoleRevoked} event."
      },
      "supportsInterface(bytes4)": {
        "details": "See {IERC165-supportsInterface}."
      },
      "upgradeTo(address)": {
        "details": "Upgrade the implementation of the proxy to `newImplementation`. Calls {_authorizeUpgrade}. Emits an {Upgraded} event."
      },
      "upgradeToAndCall(address,bytes)": {
        "details": "Upgrade the implementation of the proxy to `newImplementation`, and subsequently execute the function call encoded in `data`. Calls {_authorizeUpgrade}. Emits an {Upgraded} event."
      }
    },
    "version": 1
  },
  "userdoc": {
    "kind": "user",
    "methods": {},
    "version": 1
  },
  "storageLayout": {
    "storage": [
      {
        "astId": 804,
        "contract": "contracts/HedgeExchanger.sol:HedgeExchanger",
        "label": "_initialized",
        "offset": 0,
        "slot": "0",
        "type": "t_uint8"
      },
      {
        "astId": 807,
        "contract": "contracts/HedgeExchanger.sol:HedgeExchanger",
        "label": "_initializing",
        "offset": 1,
        "slot": "0",
        "type": "t_bool"
      },
      {
        "astId": 1554,
        "contract": "contracts/HedgeExchanger.sol:HedgeExchanger",
        "label": "__gap",
        "offset": 0,
        "slot": "1",
        "type": "t_array(t_uint256)50_storage"
      },
      {
        "astId": 1833,
        "contract": "contracts/HedgeExchanger.sol:HedgeExchanger",
        "label": "__gap",
        "offset": 0,
        "slot": "51",
        "type": "t_array(t_uint256)50_storage"
      },
      {
        "astId": 39,
        "contract": "contracts/HedgeExchanger.sol:HedgeExchanger",
        "label": "_roles",
        "offset": 0,
        "slot": "101",
        "type": "t_mapping(t_bytes32,t_struct(RoleData)34_storage)"
      },
      {
        "astId": 334,
        "contract": "contracts/HedgeExchanger.sol:HedgeExchanger",
        "label": "__gap",
        "offset": 0,
        "slot": "102",
        "type": "t_array(t_uint256)49_storage"
      },
      {
        "astId": 786,
        "contract": "contracts/HedgeExchanger.sol:HedgeExchanger",
        "label": "__gap",
        "offset": 0,
        "slot": "151",
        "type": "t_array(t_uint256)50_storage"
      },
      {
        "astId": 1101,
        "contract": "contracts/HedgeExchanger.sol:HedgeExchanger",
        "label": "__gap",
        "offset": 0,
        "slot": "201",
        "type": "t_array(t_uint256)50_storage"
      },
      {
        "astId": 1123,
        "contract": "contracts/HedgeExchanger.sol:HedgeExchanger",
        "label": "_paused",
        "offset": 0,
        "slot": "251",
        "type": "t_bool"
      },
      {
        "astId": 1228,
        "contract": "contracts/HedgeExchanger.sol:HedgeExchanger",
        "label": "__gap",
        "offset": 0,
        "slot": "252",
        "type": "t_array(t_uint256)49_storage"
      },
      {
        "astId": 3490,
        "contract": "contracts/HedgeExchanger.sol:HedgeExchanger",
        "label": "exchange",
        "offset": 0,
        "slot": "301",
        "type": "t_contract(IExchange)3282"
      },
      {
        "astId": 3493,
        "contract": "contracts/HedgeExchanger.sol:HedgeExchanger",
        "label": "strategy",
        "offset": 0,
        "slot": "302",
        "type": "t_contract(IHedgeStrategy)5211"
      },
      {
        "astId": 3496,
        "contract": "contracts/HedgeExchanger.sol:HedgeExchanger",
        "label": "usdPlus",
        "offset": 0,
        "slot": "303",
        "type": "t_contract(IUsdPlusToken)3440"
      },
      {
        "astId": 3499,
        "contract": "contracts/HedgeExchanger.sol:HedgeExchanger",
        "label": "usdc",
        "offset": 0,
        "slot": "304",
        "type": "t_contract(IERC20)2789"
      },
      {
        "astId": 3502,
        "contract": "contracts/HedgeExchanger.sol:HedgeExchanger",
        "label": "rebase",
        "offset": 0,
        "slot": "305",
        "type": "t_contract(IRebaseToken)5380"
      },
      {
        "astId": 3504,
        "contract": "contracts/HedgeExchanger.sol:HedgeExchanger",
        "label": "collector",
        "offset": 0,
        "slot": "306",
        "type": "t_address"
      },
      {
        "astId": 3506,
        "contract": "contracts/HedgeExchanger.sol:HedgeExchanger",
        "label": "buyFee",
        "offset": 0,
        "slot": "307",
        "type": "t_uint256"
      },
      {
        "astId": 3508,
        "contract": "contracts/HedgeExchanger.sol:HedgeExchanger",
        "label": "buyFeeDenominator",
        "offset": 0,
        "slot": "308",
        "type": "t_uint256"
      },
      {
        "astId": 3510,
        "contract": "contracts/HedgeExchanger.sol:HedgeExchanger",
        "label": "redeemFee",
        "offset": 0,
        "slot": "309",
        "type": "t_uint256"
      },
      {
        "astId": 3512,
        "contract": "contracts/HedgeExchanger.sol:HedgeExchanger",
        "label": "redeemFeeDenominator",
        "offset": 0,
        "slot": "310",
        "type": "t_uint256"
      },
      {
        "astId": 3514,
        "contract": "contracts/HedgeExchanger.sol:HedgeExchanger",
        "label": "tvlFee",
        "offset": 0,
        "slot": "311",
        "type": "t_uint256"
      },
      {
        "astId": 3516,
        "contract": "contracts/HedgeExchanger.sol:HedgeExchanger",
        "label": "tvlFeeDenominator",
        "offset": 0,
        "slot": "312",
        "type": "t_uint256"
      },
      {
        "astId": 3518,
        "contract": "contracts/HedgeExchanger.sol:HedgeExchanger",
        "label": "profitFee",
        "offset": 0,
        "slot": "313",
        "type": "t_uint256"
      },
      {
        "astId": 3520,
        "contract": "contracts/HedgeExchanger.sol:HedgeExchanger",
        "label": "profitFeeDenominator",
        "offset": 0,
        "slot": "314",
        "type": "t_uint256"
      },
      {
        "astId": 3522,
        "contract": "contracts/HedgeExchanger.sol:HedgeExchanger",
        "label": "nextPayoutTime",
        "offset": 0,
        "slot": "315",
        "type": "t_uint256"
      },
      {
        "astId": 3524,
        "contract": "contracts/HedgeExchanger.sol:HedgeExchanger",
        "label": "payoutPeriod",
        "offset": 0,
        "slot": "316",
        "type": "t_uint256"
      },
      {
        "astId": 3526,
        "contract": "contracts/HedgeExchanger.sol:HedgeExchanger",
        "label": "payoutTimeRange",
        "offset": 0,
        "slot": "317",
        "type": "t_uint256"
      },
      {
        "astId": 3528,
        "contract": "contracts/HedgeExchanger.sol:HedgeExchanger",
        "label": "lastBlockNumber",
        "offset": 0,
        "slot": "318",
        "type": "t_uint256"
      },
      {
        "astId": 3530,
        "contract": "contracts/HedgeExchanger.sol:HedgeExchanger",
        "label": "abroadMin",
        "offset": 0,
        "slot": "319",
        "type": "t_uint256"
      },
      {
        "astId": 3532,
        "contract": "contracts/HedgeExchanger.sol:HedgeExchanger",
        "label": "abroadMax",
        "offset": 0,
        "slot": "320",
        "type": "t_uint256"
      },
      {
        "astId": 3535,
        "contract": "contracts/HedgeExchanger.sol:HedgeExchanger",
        "label": "payoutListener",
        "offset": 0,
        "slot": "321",
        "type": "t_contract(IPayoutListener)5217"
      }
    ],
    "types": {
      "t_address": {
        "encoding": "inplace",
        "label": "address",
        "numberOfBytes": "20"
      },
      "t_array(t_uint256)49_storage": {
        "base": "t_uint256",
        "encoding": "inplace",
        "label": "uint256[49]",
        "numberOfBytes": "1568"
      },
      "t_array(t_uint256)50_storage": {
        "base": "t_uint256",
        "encoding": "inplace",
        "label": "uint256[50]",
        "numberOfBytes": "1600"
      },
      "t_bool": {
        "encoding": "inplace",
        "label": "bool",
        "numberOfBytes": "1"
      },
      "t_bytes32": {
        "encoding": "inplace",
        "label": "bytes32",
        "numberOfBytes": "32"
      },
      "t_contract(IERC20)2789": {
        "encoding": "inplace",
        "label": "contract IERC20",
        "numberOfBytes": "20"
      },
      "t_contract(IExchange)3282": {
        "encoding": "inplace",
        "label": "contract IExchange",
        "numberOfBytes": "20"
      },
      "t_contract(IHedgeStrategy)5211": {
        "encoding": "inplace",
        "label": "contract IHedgeStrategy",
        "numberOfBytes": "20"
      },
      "t_contract(IPayoutListener)5217": {
        "encoding": "inplace",
        "label": "contract IPayoutListener",
        "numberOfBytes": "20"
      },
      "t_contract(IRebaseToken)5380": {
        "encoding": "inplace",
        "label": "contract IRebaseToken",
        "numberOfBytes": "20"
      },
      "t_contract(IUsdPlusToken)3440": {
        "encoding": "inplace",
        "label": "contract IUsdPlusToken",
        "numberOfBytes": "20"
      },
      "t_mapping(t_address,t_bool)": {
        "encoding": "mapping",
        "key": "t_address",
        "label": "mapping(address => bool)",
        "numberOfBytes": "32",
        "value": "t_bool"
      },
      "t_mapping(t_bytes32,t_struct(RoleData)34_storage)": {
        "encoding": "mapping",
        "key": "t_bytes32",
        "label": "mapping(bytes32 => struct AccessControlUpgradeable.RoleData)",
        "numberOfBytes": "32",
        "value": "t_struct(RoleData)34_storage"
      },
      "t_struct(RoleData)34_storage": {
        "encoding": "inplace",
        "label": "struct AccessControlUpgradeable.RoleData",
        "members": [
          {
            "astId": 31,
            "contract": "contracts/HedgeExchanger.sol:HedgeExchanger",
            "label": "members",
            "offset": 0,
            "slot": "0",
            "type": "t_mapping(t_address,t_bool)"
          },
          {
            "astId": 33,
            "contract": "contracts/HedgeExchanger.sol:HedgeExchanger",
            "label": "adminRole",
            "offset": 0,
            "slot": "1",
            "type": "t_bytes32"
          }
        ],
        "numberOfBytes": "64"
      },
      "t_uint256": {
        "encoding": "inplace",
        "label": "uint256",
        "numberOfBytes": "32"
      },
      "t_uint8": {
        "encoding": "inplace",
        "label": "uint8",
        "numberOfBytes": "1"
      }
    }
  }
}